{
  "_format": "hh-sol-artifact-1",
  "contractName": "PaymentToken",
  "sourceName": "contracts/TokenContract.sol",
  "abi": [
    {
      "inputs": [
        {
          "internalType": "uint256",
          "name": "_totalSupply",
          "type": "uint256"
        }
      ],
      "stateMutability": "nonpayable",
      "type": "constructor"
    },
    {
      "inputs": [
        {
          "internalType": "address",
          "name": "spender",
          "type": "address"
        },
        {
          "internalType": "uint256",
          "name": "allowance",
          "type": "uint256"
        },
        {
          "internalType": "uint256",
          "name": "needed",
          "type": "uint256"
        }
      ],
      "name": "ERC20InsufficientAllowance",
      "type": "error"
    },
    {
      "inputs": [
        {
          "internalType": "address",
          "name": "sender",
          "type": "address"
        },
        {
          "internalType": "uint256",
          "name": "balance",
          "type": "uint256"
        },
        {
          "internalType": "uint256",
          "name": "needed",
          "type": "uint256"
        }
      ],
      "name": "ERC20InsufficientBalance",
      "type": "error"
    },
    {
      "inputs": [
        {
          "internalType": "address",
          "name": "approver",
          "type": "address"
        }
      ],
      "name": "ERC20InvalidApprover",
      "type": "error"
    },
    {
      "inputs": [
        {
          "internalType": "address",
          "name": "receiver",
          "type": "address"
        }
      ],
      "name": "ERC20InvalidReceiver",
      "type": "error"
    },
    {
      "inputs": [
        {
          "internalType": "address",
          "name": "sender",
          "type": "address"
        }
      ],
      "name": "ERC20InvalidSender",
      "type": "error"
    },
    {
      "inputs": [
        {
          "internalType": "address",
          "name": "spender",
          "type": "address"
        }
      ],
      "name": "ERC20InvalidSpender",
      "type": "error"
    },
    {
      "anonymous": false,
      "inputs": [
        {
          "indexed": true,
          "internalType": "address",
          "name": "owner",
          "type": "address"
        },
        {
          "indexed": true,
          "internalType": "address",
          "name": "spender",
          "type": "address"
        },
        {
          "indexed": false,
          "internalType": "uint256",
          "name": "value",
          "type": "uint256"
        }
      ],
      "name": "Approval",
      "type": "event"
    },
    {
      "anonymous": false,
      "inputs": [
        {
          "indexed": true,
          "internalType": "address",
          "name": "from",
          "type": "address"
        },
        {
          "indexed": true,
          "internalType": "address",
          "name": "to",
          "type": "address"
        },
        {
          "indexed": false,
          "internalType": "uint256",
          "name": "value",
          "type": "uint256"
        }
      ],
      "name": "Transfer",
      "type": "event"
    },
    {
      "inputs": [
        {
          "internalType": "address",
          "name": "owner",
          "type": "address"
        },
        {
          "internalType": "address",
          "name": "spender",
          "type": "address"
        }
      ],
      "name": "allowance",
      "outputs": [
        {
          "internalType": "uint256",
          "name": "",
          "type": "uint256"
        }
      ],
      "stateMutability": "view",
      "type": "function"
    },
    {
      "inputs": [
        {
          "internalType": "address",
          "name": "spender",
          "type": "address"
        },
        {
          "internalType": "uint256",
          "name": "value",
          "type": "uint256"
        }
      ],
      "name": "approve",
      "outputs": [
        {
          "internalType": "bool",
          "name": "",
          "type": "bool"
        }
      ],
      "stateMutability": "nonpayable",
      "type": "function"
    },
    {
      "inputs": [
        {
          "internalType": "address",
          "name": "account",
          "type": "address"
        }
      ],
      "name": "balanceOf",
      "outputs": [
        {
          "internalType": "uint256",
          "name": "",
          "type": "uint256"
        }
      ],
      "stateMutability": "view",
      "type": "function"
    },
    {
      "inputs": [
        {
          "internalType": "address",
          "name": "from",
          "type": "address"
        },
        {
          "internalType": "uint256",
          "name": "amount",
          "type": "uint256"
        }
      ],
      "name": "burn",
      "outputs": [],
      "stateMutability": "nonpayable",
      "type": "function"
    },
    {
      "inputs": [],
      "name": "decimals",
      "outputs": [
        {
          "internalType": "uint8",
          "name": "",
          "type": "uint8"
        }
      ],
      "stateMutability": "pure",
      "type": "function"
    },
    {
      "inputs": [],
      "name": "i_owner",
      "outputs": [
        {
          "internalType": "address",
          "name": "",
          "type": "address"
        }
      ],
      "stateMutability": "view",
      "type": "function"
    },
    {
      "inputs": [
        {
          "internalType": "address",
          "name": "to",
          "type": "address"
        },
        {
          "internalType": "uint256",
          "name": "amount",
          "type": "uint256"
        }
      ],
      "name": "mint",
      "outputs": [],
      "stateMutability": "nonpayable",
      "type": "function"
    },
    {
      "inputs": [],
      "name": "name",
      "outputs": [
        {
          "internalType": "string",
          "name": "",
          "type": "string"
        }
      ],
      "stateMutability": "view",
      "type": "function"
    },
    {
      "inputs": [],
      "name": "symbol",
      "outputs": [
        {
          "internalType": "string",
          "name": "",
          "type": "string"
        }
      ],
      "stateMutability": "view",
      "type": "function"
    },
    {
      "inputs": [],
      "name": "totalSupply",
      "outputs": [
        {
          "internalType": "uint256",
          "name": "",
          "type": "uint256"
        }
      ],
      "stateMutability": "view",
      "type": "function"
    },
    {
      "inputs": [
        {
          "internalType": "address",
          "name": "to",
          "type": "address"
        },
        {
          "internalType": "uint256",
          "name": "value",
          "type": "uint256"
        }
      ],
      "name": "transfer",
      "outputs": [
        {
          "internalType": "bool",
          "name": "",
          "type": "bool"
        }
      ],
      "stateMutability": "nonpayable",
      "type": "function"
    },
    {
      "inputs": [
        {
          "internalType": "address",
          "name": "from",
          "type": "address"
        },
        {
          "internalType": "address",
          "name": "to",
          "type": "address"
        },
        {
          "internalType": "uint256",
          "name": "value",
          "type": "uint256"
        }
      ],
      "name": "transferFrom",
      "outputs": [
        {
          "internalType": "bool",
          "name": "",
          "type": "bool"
        }
      ],
      "stateMutability": "nonpayable",
      "type": "function"
    }
  ],
  "bytecode": "0x60a06040523480156200001157600080fd5b5060405162001ec438038062001ec483398181016040528101906200003791906200042f565b6040518060400160405280600981526020017f54657374546f6b656e00000000000000000000000000000000000000000000008152506040518060400160405280600481526020017f54544b6e000000000000000000000000000000000000000000000000000000008152508160039081620000b49190620006d1565b508060049081620000c69190620006d1565b5050503373ffffffffffffffffffffffffffffffffffffffff1660808173ffffffffffffffffffffffffffffffffffffffff16815250506200012b336012600a62000112919062000948565b836200011f919062000999565b6200013260201b60201c565b5062000aec565b600073ffffffffffffffffffffffffffffffffffffffff168273ffffffffffffffffffffffffffffffffffffffff1603620001a75760006040517fec442f050000000000000000000000000000000000000000000000000000000081526004016200019e919062000a29565b60405180910390fd5b620001bb60008383620001bf60201b60201c565b5050565b600073ffffffffffffffffffffffffffffffffffffffff168373ffffffffffffffffffffffffffffffffffffffff16036200021557806002600082825462000208919062000a46565b92505081905550620002eb565b60008060008573ffffffffffffffffffffffffffffffffffffffff1673ffffffffffffffffffffffffffffffffffffffff16815260200190815260200160002054905081811015620002a4578381836040517fe450d38c0000000000000000000000000000000000000000000000000000000081526004016200029b9392919062000a92565b60405180910390fd5b8181036000808673ffffffffffffffffffffffffffffffffffffffff1673ffffffffffffffffffffffffffffffffffffffff16815260200190815260200160002081905550505b600073ffffffffffffffffffffffffffffffffffffffff168273ffffffffffffffffffffffffffffffffffffffff160362000336578060026000828254039250508190555062000383565b806000808473ffffffffffffffffffffffffffffffffffffffff1673ffffffffffffffffffffffffffffffffffffffff168152602001908152602001600020600082825401925050819055505b8173ffffffffffffffffffffffffffffffffffffffff168373ffffffffffffffffffffffffffffffffffffffff167fddf252ad1be2c89b69c2b068fc378daa952ba7f163c4a11628f55a4df523b3ef83604051620003e2919062000acf565b60405180910390a3505050565b600080fd5b6000819050919050565b6200040981620003f4565b81146200041557600080fd5b50565b6000815190506200042981620003fe565b92915050565b600060208284031215620004485762000447620003ef565b5b6000620004588482850162000418565b91505092915050565b600081519050919050565b7f4e487b7100000000000000000000000000000000000000000000000000000000600052604160045260246000fd5b7f4e487b7100000000000000000000000000000000000000000000000000000000600052602260045260246000fd5b60006002820490506001821680620004e357607f821691505b602082108103620004f957620004f86200049b565b5b50919050565b60008190508160005260206000209050919050565b60006020601f8301049050919050565b600082821b905092915050565b600060088302620005637fffffffffffffffffffffffffffffffffffffffffffffffffffffffffffffffff8262000524565b6200056f868362000524565b95508019841693508086168417925050509392505050565b6000819050919050565b6000620005b2620005ac620005a684620003f4565b62000587565b620003f4565b9050919050565b6000819050919050565b620005ce8362000591565b620005e6620005dd82620005b9565b84845462000531565b825550505050565b600090565b620005fd620005ee565b6200060a818484620005c3565b505050565b5b81811015620006325762000626600082620005f3565b60018101905062000610565b5050565b601f82111562000681576200064b81620004ff565b620006568462000514565b8101602085101562000666578190505b6200067e620006758562000514565b8301826200060f565b50505b505050565b600082821c905092915050565b6000620006a66000198460080262000686565b1980831691505092915050565b6000620006c1838362000693565b9150826002028217905092915050565b620006dc8262000461565b67ffffffffffffffff811115620006f857620006f76200046c565b5b620007048254620004ca565b6200071182828562000636565b600060209050601f83116001811462000749576000841562000734578287015190505b620007408582620006b3565b865550620007b0565b601f1984166200075986620004ff565b60005b8281101562000783578489015182556001820191506020850194506020810190506200075c565b86831015620007a357848901516200079f601f89168262000693565b8355505b6001600288020188555050505b505050505050565b7f4e487b7100000000000000000000000000000000000000000000000000000000600052601160045260246000fd5b60008160011c9050919050565b6000808291508390505b600185111562000846578086048111156200081e576200081d620007b8565b5b60018516156200082e5780820291505b80810290506200083e85620007e7565b9450620007fe565b94509492505050565b60008262000861576001905062000934565b8162000871576000905062000934565b81600181146200088a57600281146200089557620008cb565b600191505062000934565b60ff841115620008aa57620008a9620007b8565b5b8360020a915084821115620008c457620008c3620007b8565b5b5062000934565b5060208310610133831016604e8410600b8410161715620009055782820a905083811115620008ff57620008fe620007b8565b5b62000934565b620009148484846001620007f4565b925090508184048111156200092e576200092d620007b8565b5b81810290505b9392505050565b600060ff82169050919050565b60006200095582620003f4565b915062000962836200093b565b9250620009917fffffffffffffffffffffffffffffffffffffffffffffffffffffffffffffffff84846200084f565b905092915050565b6000620009a682620003f4565b9150620009b383620003f4565b9250828202620009c381620003f4565b91508282048414831517620009dd57620009dc620007b8565b5b5092915050565b600073ffffffffffffffffffffffffffffffffffffffff82169050919050565b600062000a1182620009e4565b9050919050565b62000a238162000a04565b82525050565b600060208201905062000a40600083018462000a18565b92915050565b600062000a5382620003f4565b915062000a6083620003f4565b925082820190508082111562000a7b5762000a7a620007b8565b5b92915050565b62000a8c81620003f4565b82525050565b600060608201905062000aa9600083018662000a18565b62000ab8602083018562000a81565b62000ac7604083018462000a81565b949350505050565b600060208201905062000ae6600083018462000a81565b92915050565b6080516113ae62000b1660003960008181610370015281816104fe01526105d501526113ae6000f3fe608060405234801561001057600080fd5b50600436106100b45760003560e01c806370a082311161007157806370a082311461018f57806395d89b41146101bf5780639dc29fac146101dd578063a9059cbb146101f9578063dba6335f14610229578063dd62ed3e14610247576100b4565b806306fdde03146100b9578063095ea7b3146100d757806318160ddd1461010757806323b872dd14610125578063313ce5671461015557806340c10f1914610173575b600080fd5b6100c1610277565b6040516100ce9190610db0565b60405180910390f35b6100f160048036038101906100ec9190610e6b565b610309565b6040516100fe9190610ec6565b60405180910390f35b61010f61032c565b60405161011c9190610ef0565b60405180910390f35b61013f600480360381019061013a9190610f0b565b610336565b60405161014c9190610ec6565b60405180910390f35b61015d610365565b60405161016a9190610f7a565b60405180910390f35b61018d60048036038101906101889190610e6b565b61036e565b005b6101a960048036038101906101a49190610f95565b610422565b6040516101b69190610ef0565b60405180910390f35b6101c761046a565b6040516101d49190610db0565b60405180910390f35b6101f760048036038101906101f29190610e6b565b6104fc565b005b610213600480360381019061020e9190610e6b565b6105b0565b6040516102209190610ec6565b60405180910390f35b6102316105d3565b60405161023e9190610fd1565b60405180910390f35b610261600480360381019061025c9190610fec565b6105f7565b60405161026e9190610ef0565b60405180910390f35b6060600380546102869061105b565b80601f01602080910402602001604051908101604052809291908181526020018280546102b29061105b565b80156102ff5780601f106102d4576101008083540402835291602001916102ff565b820191906000526020600020905b8154815290600101906020018083116102e257829003601f168201915b5050505050905090565b60008061031461067e565b9050610321818585610686565b600191505092915050565b6000600254905090565b60008061034161067e565b905061034e858285610698565b61035985858561072c565b60019150509392505050565b60006012905090565b7f000000000000000000000000000000000000000000000000000000000000000073ffffffffffffffffffffffffffffffffffffffff163373ffffffffffffffffffffffffffffffffffffffff16146103fc576040517f08c379a00000000000000000000000000000000000000000000000000000000081526004016103f3906110fe565b60405180910390fd5b61041e826012600a61040e9190611280565b8361041991906112cb565b610820565b5050565b60008060008373ffffffffffffffffffffffffffffffffffffffff1673ffffffffffffffffffffffffffffffffffffffff168152602001908152602001600020549050919050565b6060600480546104799061105b565b80601f01602080910402602001604051908101604052809291908181526020018280546104a59061105b565b80156104f25780601f106104c7576101008083540402835291602001916104f2565b820191906000526020600020905b8154815290600101906020018083116104d557829003601f168201915b5050505050905090565b7f000000000000000000000000000000000000000000000000000000000000000073ffffffffffffffffffffffffffffffffffffffff163373ffffffffffffffffffffffffffffffffffffffff161461058a576040517f08c379a0000000000000000000000000000000000000000000000000000000008152600401610581906110fe565b60405180910390fd5b6105ac826012600a61059c9190611280565b836105a791906112cb565b6108a2565b5050565b6000806105bb61067e565b90506105c881858561072c565b600191505092915050565b7f000000000000000000000000000000000000000000000000000000000000000081565b6000600160008473ffffffffffffffffffffffffffffffffffffffff1673ffffffffffffffffffffffffffffffffffffffff16815260200190815260200160002060008373ffffffffffffffffffffffffffffffffffffffff1673ffffffffffffffffffffffffffffffffffffffff16815260200190815260200160002054905092915050565b600033905090565b6106938383836001610924565b505050565b60006106a484846105f7565b90507fffffffffffffffffffffffffffffffffffffffffffffffffffffffffffffffff81146107265781811015610716578281836040517ffb8f41b200000000000000000000000000000000000000000000000000000000815260040161070d9392919061130d565b60405180910390fd5b61072584848484036000610924565b5b50505050565b600073ffffffffffffffffffffffffffffffffffffffff168373ffffffffffffffffffffffffffffffffffffffff160361079e5760006040517f96c6fd1e0000000000000000000000000000000000000000000000000000000081526004016107959190610fd1565b60405180910390fd5b600073ffffffffffffffffffffffffffffffffffffffff168273ffffffffffffffffffffffffffffffffffffffff16036108105760006040517fec442f050000000000000000000000000000000000000000000000000000000081526004016108079190610fd1565b60405180910390fd5b61081b838383610afb565b505050565b600073ffffffffffffffffffffffffffffffffffffffff168273ffffffffffffffffffffffffffffffffffffffff16036108925760006040517fec442f050000000000000000000000000000000000000000000000000000000081526004016108899190610fd1565b60405180910390fd5b61089e60008383610afb565b5050565b600073ffffffffffffffffffffffffffffffffffffffff168273ffffffffffffffffffffffffffffffffffffffff16036109145760006040517f96c6fd1e00000000000000000000000000000000000000000000000000000000815260040161090b9190610fd1565b60405180910390fd5b61092082600083610afb565b5050565b600073ffffffffffffffffffffffffffffffffffffffff168473ffffffffffffffffffffffffffffffffffffffff16036109965760006040517fe602df0500000000000000000000000000000000000000000000000000000000815260040161098d9190610fd1565b60405180910390fd5b600073ffffffffffffffffffffffffffffffffffffffff168373ffffffffffffffffffffffffffffffffffffffff1603610a085760006040517f94280d620000000000000000000000000000000000000000000000000000000081526004016109ff9190610fd1565b60405180910390fd5b81600160008673ffffffffffffffffffffffffffffffffffffffff1673ffffffffffffffffffffffffffffffffffffffff16815260200190815260200160002060008573ffffffffffffffffffffffffffffffffffffffff1673ffffffffffffffffffffffffffffffffffffffff168152602001908152602001600020819055508015610af5578273ffffffffffffffffffffffffffffffffffffffff168473ffffffffffffffffffffffffffffffffffffffff167f8c5be1e5ebec7d5bd14f71427d1e84f3dd0314c0f7b2291e5b200ac8c7c3b92584604051610aec9190610ef0565b60405180910390a35b50505050565b600073ffffffffffffffffffffffffffffffffffffffff168373ffffffffffffffffffffffffffffffffffffffff1603610b4d578060026000828254610b419190611344565b92505081905550610c20565b60008060008573ffffffffffffffffffffffffffffffffffffffff1673ffffffffffffffffffffffffffffffffffffffff16815260200190815260200160002054905081811015610bd9578381836040517fe450d38c000000000000000000000000000000000000000000000000000000008152600401610bd09392919061130d565b60405180910390fd5b8181036000808673ffffffffffffffffffffffffffffffffffffffff1673ffffffffffffffffffffffffffffffffffffffff16815260200190815260200160002081905550505b600073ffffffffffffffffffffffffffffffffffffffff168273ffffffffffffffffffffffffffffffffffffffff1603610c695780600260008282540392505081905550610cb6565b806000808473ffffffffffffffffffffffffffffffffffffffff1673ffffffffffffffffffffffffffffffffffffffff168152602001908152602001600020600082825401925050819055505b8173ffffffffffffffffffffffffffffffffffffffff168373ffffffffffffffffffffffffffffffffffffffff167fddf252ad1be2c89b69c2b068fc378daa952ba7f163c4a11628f55a4df523b3ef83604051610d139190610ef0565b60405180910390a3505050565b600081519050919050565b600082825260208201905092915050565b60005b83811015610d5a578082015181840152602081019050610d3f565b60008484015250505050565b6000601f19601f8301169050919050565b6000610d8282610d20565b610d8c8185610d2b565b9350610d9c818560208601610d3c565b610da581610d66565b840191505092915050565b60006020820190508181036000830152610dca8184610d77565b905092915050565b600080fd5b600073ffffffffffffffffffffffffffffffffffffffff82169050919050565b6000610e0282610dd7565b9050919050565b610e1281610df7565b8114610e1d57600080fd5b50565b600081359050610e2f81610e09565b92915050565b6000819050919050565b610e4881610e35565b8114610e5357600080fd5b50565b600081359050610e6581610e3f565b92915050565b60008060408385031215610e8257610e81610dd2565b5b6000610e9085828601610e20565b9250506020610ea185828601610e56565b9150509250929050565b60008115159050919050565b610ec081610eab565b82525050565b6000602082019050610edb6000830184610eb7565b92915050565b610eea81610e35565b82525050565b6000602082019050610f056000830184610ee1565b92915050565b600080600060608486031215610f2457610f23610dd2565b5b6000610f3286828701610e20565b9350506020610f4386828701610e20565b9250506040610f5486828701610e56565b9150509250925092565b600060ff82169050919050565b610f7481610f5e565b82525050565b6000602082019050610f8f6000830184610f6b565b92915050565b600060208284031215610fab57610faa610dd2565b5b6000610fb984828501610e20565b91505092915050565b610fcb81610df7565b82525050565b6000602082019050610fe66000830184610fc2565b92915050565b6000806040838503121561100357611002610dd2565b5b600061101185828601610e20565b925050602061102285828601610e20565b9150509250929050565b7f4e487b7100000000000000000000000000000000000000000000000000000000600052602260045260246000fd5b6000600282049050600182168061107357607f821691505b6020821081036110865761108561102c565b5b50919050565b7f4f6e6c79206f776e65722063616e2063616c6c20746869732066756e6374696f60008201527f6e00000000000000000000000000000000000000000000000000000000000000602082015250565b60006110e8602183610d2b565b91506110f38261108c565b604082019050919050565b60006020820190508181036000830152611117816110db565b9050919050565b7f4e487b7100000000000000000000000000000000000000000000000000000000600052601160045260246000fd5b60008160011c9050919050565b6000808291508390505b60018511156111a4578086048111156111805761117f61111e565b5b600185161561118f5780820291505b808102905061119d8561114d565b9450611164565b94509492505050565b6000826111bd5760019050611279565b816111cb5760009050611279565b81600181146111e157600281146111eb5761121a565b6001915050611279565b60ff8411156111fd576111fc61111e565b5b8360020a9150848211156112145761121361111e565b5b50611279565b5060208310610133831016604e8410600b841016171561124f5782820a90508381111561124a5761124961111e565b5b611279565b61125c848484600161115a565b925090508184048111156112735761127261111e565b5b81810290505b9392505050565b600061128b82610e35565b915061129683610f5e565b92506112c37fffffffffffffffffffffffffffffffffffffffffffffffffffffffffffffffff84846111ad565b905092915050565b60006112d682610e35565b91506112e183610e35565b92508282026112ef81610e35565b915082820484148315176113065761130561111e565b5b5092915050565b60006060820190506113226000830186610fc2565b61132f6020830185610ee1565b61133c6040830184610ee1565b949350505050565b600061134f82610e35565b915061135a83610e35565b92508282019050808211156113725761137161111e565b5b9291505056fea2646970667358221220d8abf9b013908c346559ec892fd61cf0c2063056e0395bc488f9093eb2ef97eb64736f6c63430008180033",
  "linkReferences": {},
  "deployedLinkReferences": {}
}