{
  "_format": "hh-sol-artifact-1",
  "contractName": "FamDomainMintingV1",
  "sourceName": "contracts/FamDomainMintingV1.sol",
  "abi": [
    {
      "inputs": [],
      "name": "InvalidInitialization",
      "type": "error"
    },
    {
      "inputs": [],
      "name": "NotInitializing",
      "type": "error"
    },
    {
      "inputs": [
        {
          "internalType": "address",
          "name": "owner",
          "type": "address"
        }
      ],
      "name": "OwnableInvalidOwner",
      "type": "error"
    },
    {
      "inputs": [
        {
          "internalType": "address",
          "name": "account",
          "type": "address"
        }
      ],
      "name": "OwnableUnauthorizedAccount",
      "type": "error"
    },
    {
      "anonymous": false,
      "inputs": [
        {
          "indexed": true,
          "internalType": "address",
          "name": "user",
          "type": "address"
        },
        {
          "indexed": false,
          "internalType": "string",
          "name": "domain",
          "type": "string"
        }
      ],
      "name": "DomainMinted",
      "type": "event"
    },
    {
      "anonymous": false,
      "inputs": [
        {
          "indexed": false,
          "internalType": "uint64",
          "name": "version",
          "type": "uint64"
        }
      ],
      "name": "Initialized",
      "type": "event"
    },
    {
      "anonymous": false,
      "inputs": [
        {
          "indexed": true,
          "internalType": "address",
          "name": "previousOwner",
          "type": "address"
        },
        {
          "indexed": true,
          "internalType": "address",
          "name": "newOwner",
          "type": "address"
        }
      ],
      "name": "OwnershipTransferred",
      "type": "event"
    },
    {
      "anonymous": false,
      "inputs": [
        {
          "indexed": true,
          "internalType": "address",
          "name": "referrer",
          "type": "address"
        },
        {
          "indexed": false,
          "internalType": "string",
          "name": "referralCode",
          "type": "string"
        }
      ],
      "name": "ReferralCodeCreated",
      "type": "event"
    },
    {
      "anonymous": false,
      "inputs": [
        {
          "indexed": true,
          "internalType": "address",
          "name": "user",
          "type": "address"
        },
        {
          "indexed": false,
          "internalType": "string",
          "name": "domain",
          "type": "string"
        },
        {
          "indexed": true,
          "internalType": "address",
          "name": "referrer",
          "type": "address"
        },
        {
          "indexed": false,
          "internalType": "uint256",
          "name": "fee",
          "type": "uint256"
        }
      ],
      "name": "ReferralMinted",
      "type": "event"
    },
    {
      "inputs": [
        {
          "internalType": "address",
          "name": "_user",
          "type": "address"
        }
      ],
      "name": "addDiscountMintWhitelist",
      "outputs": [],
      "stateMutability": "nonpayable",
      "type": "function"
    },
    {
      "inputs": [
        {
          "internalType": "address",
          "name": "_user",
          "type": "address"
        }
      ],
      "name": "addFreeMintWhitelist",
      "outputs": [],
      "stateMutability": "nonpayable",
      "type": "function"
    },
    {
      "inputs": [
        {
          "internalType": "address[]",
          "name": "_users",
          "type": "address[]"
        }
      ],
      "name": "batchAddDiscountMintWhitelist",
      "outputs": [],
      "stateMutability": "nonpayable",
      "type": "function"
    },
    {
      "inputs": [
        {
          "internalType": "address[]",
          "name": "_users",
          "type": "address[]"
        }
      ],
      "name": "batchAddFreeMintWhitelist",
      "outputs": [],
      "stateMutability": "nonpayable",
      "type": "function"
    },
    {
      "inputs": [
        {
          "internalType": "string",
          "name": "_referralCode",
          "type": "string"
        }
      ],
      "name": "createReferralCode",
      "outputs": [],
      "stateMutability": "nonpayable",
      "type": "function"
    },
    {
      "inputs": [
        {
          "internalType": "string",
          "name": "_domain",
          "type": "string"
        },
        {
          "internalType": "uint256",
          "name": "_amount",
          "type": "uint256"
        }
      ],
      "name": "discountMintDomain",
      "outputs": [],
      "stateMutability": "payable",
      "type": "function"
    },
    {
      "inputs": [
        {
          "internalType": "address",
          "name": "",
          "type": "address"
        }
      ],
      "name": "discountMintWhitelist",
      "outputs": [
        {
          "internalType": "bool",
          "name": "",
          "type": "bool"
        }
      ],
      "stateMutability": "view",
      "type": "function"
    },
    {
      "inputs": [],
      "name": "feeRecipient",
      "outputs": [
        {
          "internalType": "address payable",
          "name": "",
          "type": "address"
        }
      ],
      "stateMutability": "view",
      "type": "function"
    },
    {
      "inputs": [
        {
          "internalType": "string",
          "name": "_domain",
          "type": "string"
        }
      ],
      "name": "freeMintDomain",
      "outputs": [],
      "stateMutability": "nonpayable",
      "type": "function"
    },
    {
      "inputs": [
        {
          "internalType": "address",
          "name": "",
          "type": "address"
        }
      ],
      "name": "freeMintWhitelist",
      "outputs": [
        {
          "internalType": "bool",
          "name": "",
          "type": "bool"
        }
      ],
      "stateMutability": "view",
      "type": "function"
    },
    {
      "inputs": [
        {
          "internalType": "string",
          "name": "_domain",
          "type": "string"
        }
      ],
      "name": "getDomainOwner",
      "outputs": [
        {
          "internalType": "address",
          "name": "",
          "type": "address"
        }
      ],
      "stateMutability": "view",
      "type": "function"
    },
    {
      "inputs": [
        {
          "internalType": "address",
          "name": "",
          "type": "address"
        }
      ],
      "name": "hasMintedDomain",
      "outputs": [
        {
          "internalType": "bool",
          "name": "",
          "type": "bool"
        }
      ],
      "stateMutability": "view",
      "type": "function"
    },
    {
      "inputs": [
        {
          "internalType": "address payable",
          "name": "_feeRecipient",
          "type": "address"
        },
        {
          "internalType": "address",
          "name": "_initialOwner",
          "type": "address"
        }
      ],
      "name": "initialize",
      "outputs": [],
      "stateMutability": "nonpayable",
      "type": "function"
    },
    {
      "inputs": [
        {
          "internalType": "string",
          "name": "_domain",
          "type": "string"
        },
        {
          "internalType": "string",
          "name": "_referralCode",
          "type": "string"
        },
        {
          "internalType": "uint256",
          "name": "_amount",
          "type": "uint256"
        }
      ],
      "name": "mintDomainWithReferral",
      "outputs": [],
      "stateMutability": "payable",
      "type": "function"
    },
    {
      "inputs": [],
      "name": "owner",
      "outputs": [
        {
          "internalType": "address",
          "name": "",
          "type": "address"
        }
      ],
      "stateMutability": "view",
      "type": "function"
    },
    {
      "inputs": [
        {
          "internalType": "string",
          "name": "",
          "type": "string"
        }
      ],
      "name": "referralOwners",
      "outputs": [
        {
          "internalType": "address",
          "name": "",
          "type": "address"
        }
      ],
      "stateMutability": "view",
      "type": "function"
    },
    {
      "inputs": [
        {
          "internalType": "address",
          "name": "_user",
          "type": "address"
        }
      ],
      "name": "removeDiscountMintWhitelist",
      "outputs": [],
      "stateMutability": "nonpayable",
      "type": "function"
    },
    {
      "inputs": [
        {
          "internalType": "address",
          "name": "_user",
          "type": "address"
        }
      ],
      "name": "removeFreeMintWhitelist",
      "outputs": [],
      "stateMutability": "nonpayable",
      "type": "function"
    },
    {
      "inputs": [],
      "name": "renounceOwnership",
      "outputs": [],
      "stateMutability": "nonpayable",
      "type": "function"
    },
    {
      "inputs": [
        {
          "internalType": "address",
          "name": "newOwner",
          "type": "address"
        }
      ],
      "name": "transferOwnership",
      "outputs": [],
      "stateMutability": "nonpayable",
      "type": "function"
    },
    {
      "inputs": [
        {
          "internalType": "address payable",
          "name": "_newRecipient",
          "type": "address"
        }
      ],
      "name": "updateFeeRecipient",
      "outputs": [],
      "stateMutability": "nonpayable",
      "type": "function"
    }
  ],
  "bytecode": "0x608060405234801561001057600080fd5b506126a4806100206000396000f3fe60806040526004361061012a5760003560e01c806364af6176116100ab578063aa48ed8f1161006f578063aa48ed8f146103cb578063c7aa729514610408578063da47d7cf14610431578063e989e4461461044d578063f160d36914610476578063f2fde38b1461049f5761012a565b806364af61761461030e578063715018a614610337578063795cb2d91461034e5780637fc340f7146103775780638da5cb5b146103a05761012a565b806334c928c0116100f257806334c928c01461022b5780633e0183d114610254578063469048401461027d578063485cc955146102a857806348a31f95146102d15761012a565b8063092ca2d01461012f5780630ae25b1c1461016c578063183dcea5146101a957806325970115146101c5578063342da90a14610202575b600080fd5b34801561013b57600080fd5b5061015660048036038101906101519190611b6e565b6104c8565b6040516101639190611bb6565b60405180910390f35b34801561017857600080fd5b50610193600480360381019061018e9190611b6e565b6104e8565b6040516101a09190611bb6565b60405180910390f35b6101c360048036038101906101be9190611d4d565b610508565b005b3480156101d157600080fd5b506101ec60048036038101906101e79190611da9565b61089d565b6040516101f99190611e01565b60405180910390f35b34801561020e57600080fd5b5061022960048036038101906102249190611e7c565b6108e5565b005b34801561023757600080fd5b50610252600480360381019061024d9190611b6e565b61098c565b005b34801561026057600080fd5b5061027b60048036038101906102769190611da9565b6109ef565b005b34801561028957600080fd5b50610292610bd6565b60405161029f9190611eea565b60405180910390f35b3480156102b457600080fd5b506102cf60048036038101906102ca9190611f31565b610bfa565b005b3480156102dd57600080fd5b506102f860048036038101906102f39190611b6e565b610dca565b6040516103059190611bb6565b60405180910390f35b34801561031a57600080fd5b5061033560048036038101906103309190611da9565b610dea565b005b34801561034357600080fd5b5061034c6110b6565b005b34801561035a57600080fd5b5061037560048036038101906103709190611e7c565b6110ca565b005b34801561038357600080fd5b5061039e60048036038101906103999190611b6e565b611171565b005b3480156103ac57600080fd5b506103b56111d4565b6040516103c29190611e01565b60405180910390f35b3480156103d757600080fd5b506103f260048036038101906103ed9190611da9565b61120c565b6040516103ff9190611e01565b60405180910390f35b34801561041457600080fd5b5061042f600480360381019061042a9190611b6e565b611255565b005b61044b60048036038101906104469190611f71565b6112b8565b005b34801561045957600080fd5b50610474600480360381019061046f9190611b6e565b611718565b005b34801561048257600080fd5b5061049d60048036038101906104989190611ffc565b61177b565b005b3480156104ab57600080fd5b506104c660048036038101906104c19190611b6e565b6117c6565b005b60046020528060005260406000206000915054906101000a900460ff1681565b60056020528060005260406000206000915054906101000a900460ff1681565b600073ffffffffffffffffffffffffffffffffffffffff16600183604051610530919061209a565b908152602001604051809103902060009054906101000a900473ffffffffffffffffffffffffffffffffffffffff1673ffffffffffffffffffffffffffffffffffffffff16146105b5576040517f08c379a00000000000000000000000000000000000000000000000000000000081526004016105ac9061210e565b60405180910390fd5b600360003373ffffffffffffffffffffffffffffffffffffffff1673ffffffffffffffffffffffffffffffffffffffff16815260200190815260200160002060009054906101000a900460ff1615610642576040517f08c379a00000000000000000000000000000000000000000000000000000000081526004016106399061217a565b60405180910390fd5b600560003373ffffffffffffffffffffffffffffffffffffffff1673ffffffffffffffffffffffffffffffffffffffff16815260200190815260200160002060009054906101000a900460ff166106ce576040517f08c379a00000000000000000000000000000000000000000000000000000000081526004016106c59061220c565b60405180910390fd5b6002816106db919061228a565b34101561071d576040517f08c379a000000000000000000000000000000000000000000000000000000000815260040161071490612307565b60405180910390fd5b600060028261072c919061228a565b905060008054906101000a900473ffffffffffffffffffffffffffffffffffffffff1673ffffffffffffffffffffffffffffffffffffffff166108fc829081150290604051600060405180830381858888f19350505050158015610794573d6000803e3d6000fd5b50336001846040516107a6919061209a565b908152602001604051809103902060006101000a81548173ffffffffffffffffffffffffffffffffffffffff021916908373ffffffffffffffffffffffffffffffffffffffff1602179055506001600360003373ffffffffffffffffffffffffffffffffffffffff1673ffffffffffffffffffffffffffffffffffffffff16815260200190815260200160002060006101000a81548160ff0219169083151502179055503373ffffffffffffffffffffffffffffffffffffffff167fdaa0fb73e6af06042f6e802c832e04bd3362f3561e0a88a239484001c9e256bb846040516108909190612360565b60405180910390a2505050565b60006001826040516108af919061209a565b908152602001604051809103902060009054906101000a900473ffffffffffffffffffffffffffffffffffffffff169050919050565b6108ed61184c565b60005b828290508110156109875760016005600085858581811061091457610913612382565b5b90506020020160208101906109299190611b6e565b73ffffffffffffffffffffffffffffffffffffffff1673ffffffffffffffffffffffffffffffffffffffff16815260200190815260200160002060006101000a81548160ff02191690831515021790555080806001019150506108f0565b505050565b61099461184c565b6000600560008373ffffffffffffffffffffffffffffffffffffffff1673ffffffffffffffffffffffffffffffffffffffff16815260200190815260200160002060006101000a81548160ff02191690831515021790555050565b600360003373ffffffffffffffffffffffffffffffffffffffff1673ffffffffffffffffffffffffffffffffffffffff16815260200190815260200160002060009054906101000a900460ff16610a7b576040517f08c379a0000000000000000000000000000000000000000000000000000000008152600401610a72906123fd565b60405180910390fd5b600073ffffffffffffffffffffffffffffffffffffffff16600282604051610aa3919061209a565b908152602001604051809103902060009054906101000a900473ffffffffffffffffffffffffffffffffffffffff1673ffffffffffffffffffffffffffffffffffffffff1614610b28576040517f08c379a0000000000000000000000000000000000000000000000000000000008152600401610b1f90612469565b60405180910390fd5b33600282604051610b39919061209a565b908152602001604051809103902060006101000a81548173ffffffffffffffffffffffffffffffffffffffff021916908373ffffffffffffffffffffffffffffffffffffffff1602179055503373ffffffffffffffffffffffffffffffffffffffff167fbbba1cab2093e26ee6b388fefb2109576871f9236f9c1f22779dad4b82093b7b82604051610bcb9190612360565b60405180910390a250565b60008054906101000a900473ffffffffffffffffffffffffffffffffffffffff1681565b6000610c046118d3565b905060008160000160089054906101000a900460ff1615905060008260000160009054906101000a900467ffffffffffffffff1690506000808267ffffffffffffffff16148015610c525750825b9050600060018367ffffffffffffffff16148015610c87575060003073ffffffffffffffffffffffffffffffffffffffff163b145b905081158015610c95575080155b15610ccc576040517ff92ee8a900000000000000000000000000000000000000000000000000000000815260040160405180910390fd5b60018560000160006101000a81548167ffffffffffffffff021916908367ffffffffffffffff1602179055508315610d1c5760018560000160086101000a81548160ff0219169083151502179055505b866000806101000a81548173ffffffffffffffffffffffffffffffffffffffff021916908373ffffffffffffffffffffffffffffffffffffffff160217905550610d65866118fb565b8315610dc15760008560000160086101000a81548160ff0219169083151502179055507fc7f505b2f371ae2175ee4913f4499e1f2633a7b5936321eed1cdaeb6115181d26001604051610db891906124e2565b60405180910390a15b50505050505050565b60036020528060005260406000206000915054906101000a900460ff1681565b600073ffffffffffffffffffffffffffffffffffffffff16600182604051610e12919061209a565b908152602001604051809103902060009054906101000a900473ffffffffffffffffffffffffffffffffffffffff1673ffffffffffffffffffffffffffffffffffffffff1614610e97576040517f08c379a0000000000000000000000000000000000000000000000000000000008152600401610e8e9061210e565b60405180910390fd5b600360003373ffffffffffffffffffffffffffffffffffffffff1673ffffffffffffffffffffffffffffffffffffffff16815260200190815260200160002060009054906101000a900460ff1615610f24576040517f08c379a0000000000000000000000000000000000000000000000000000000008152600401610f1b9061217a565b60405180910390fd5b600460003373ffffffffffffffffffffffffffffffffffffffff1673ffffffffffffffffffffffffffffffffffffffff16815260200190815260200160002060009054906101000a900460ff16610fb0576040517f08c379a0000000000000000000000000000000000000000000000000000000008152600401610fa79061256f565b60405180910390fd5b33600182604051610fc1919061209a565b908152602001604051809103902060006101000a81548173ffffffffffffffffffffffffffffffffffffffff021916908373ffffffffffffffffffffffffffffffffffffffff1602179055506001600360003373ffffffffffffffffffffffffffffffffffffffff1673ffffffffffffffffffffffffffffffffffffffff16815260200190815260200160002060006101000a81548160ff0219169083151502179055503373ffffffffffffffffffffffffffffffffffffffff167fdaa0fb73e6af06042f6e802c832e04bd3362f3561e0a88a239484001c9e256bb826040516110ab9190612360565b60405180910390a250565b6110be61184c565b6110c8600061190f565b565b6110d261184c565b60005b8282905081101561116c576001600460008585858181106110f9576110f8612382565b5b905060200201602081019061110e9190611b6e565b73ffffffffffffffffffffffffffffffffffffffff1673ffffffffffffffffffffffffffffffffffffffff16815260200190815260200160002060006101000a81548160ff02191690831515021790555080806001019150506110d5565b505050565b61117961184c565b6001600560008373ffffffffffffffffffffffffffffffffffffffff1673ffffffffffffffffffffffffffffffffffffffff16815260200190815260200160002060006101000a81548160ff02191690831515021790555050565b6000806111df6119e6565b90508060000160009054906101000a900473ffffffffffffffffffffffffffffffffffffffff1691505090565b6002818051602081018201805184825260208301602085012081835280955050505050506000915054906101000a900473ffffffffffffffffffffffffffffffffffffffff1681565b61125d61184c565b6000600460008373ffffffffffffffffffffffffffffffffffffffff1673ffffffffffffffffffffffffffffffffffffffff16815260200190815260200160002060006101000a81548160ff02191690831515021790555050565b600073ffffffffffffffffffffffffffffffffffffffff166001846040516112e0919061209a565b908152602001604051809103902060009054906101000a900473ffffffffffffffffffffffffffffffffffffffff1673ffffffffffffffffffffffffffffffffffffffff1614611365576040517f08c379a000000000000000000000000000000000000000000000000000000000815260040161135c9061210e565b60405180910390fd5b600360003373ffffffffffffffffffffffffffffffffffffffff1673ffffffffffffffffffffffffffffffffffffffff16815260200190815260200160002060009054906101000a900460ff16156113f2576040517f08c379a00000000000000000000000000000000000000000000000000000000081526004016113e99061217a565b60405180910390fd5b600073ffffffffffffffffffffffffffffffffffffffff1660028360405161141a919061209a565b908152602001604051809103902060009054906101000a900473ffffffffffffffffffffffffffffffffffffffff1673ffffffffffffffffffffffffffffffffffffffff160361149f576040517f08c379a0000000000000000000000000000000000000000000000000000000008152600401611496906125db565b60405180910390fd5b803410156114e2576040517f08c379a00000000000000000000000000000000000000000000000000000000081526004016114d990612307565b60405180910390fd5b60006002826114f1919061228a565b90506000818361150191906125fb565b90506000600285604051611515919061209a565b908152602001604051809103902060009054906101000a900473ffffffffffffffffffffffffffffffffffffffff1690508073ffffffffffffffffffffffffffffffffffffffff166108fc849081150290604051600060405180830381858888f1935050505015801561158c573d6000803e3d6000fd5b5060008054906101000a900473ffffffffffffffffffffffffffffffffffffffff1673ffffffffffffffffffffffffffffffffffffffff166108fc839081150290604051600060405180830381858888f193505050501580156115f3573d6000803e3d6000fd5b5033600187604051611605919061209a565b908152602001604051809103902060006101000a81548173ffffffffffffffffffffffffffffffffffffffff021916908373ffffffffffffffffffffffffffffffffffffffff1602179055506001600360003373ffffffffffffffffffffffffffffffffffffffff1673ffffffffffffffffffffffffffffffffffffffff16815260200190815260200160002060006101000a81548160ff0219169083151502179055508073ffffffffffffffffffffffffffffffffffffffff163373ffffffffffffffffffffffffffffffffffffffff167f4add78a10a86705f00b5e7b16d296b01898826ff4ee52c242abff5564a3719c2888660405161170892919061263e565b60405180910390a3505050505050565b61172061184c565b6001600460008373ffffffffffffffffffffffffffffffffffffffff1673ffffffffffffffffffffffffffffffffffffffff16815260200190815260200160002060006101000a81548160ff02191690831515021790555050565b61178361184c565b806000806101000a81548173ffffffffffffffffffffffffffffffffffffffff021916908373ffffffffffffffffffffffffffffffffffffffff16021790555050565b6117ce61184c565b600073ffffffffffffffffffffffffffffffffffffffff168173ffffffffffffffffffffffffffffffffffffffff16036118405760006040517f1e4fbdf70000000000000000000000000000000000000000000000000000000081526004016118379190611e01565b60405180910390fd5b6118498161190f565b50565b611854611a0e565b73ffffffffffffffffffffffffffffffffffffffff166118726111d4565b73ffffffffffffffffffffffffffffffffffffffff16146118d157611895611a0e565b6040517f118cdaa70000000000000000000000000000000000000000000000000000000081526004016118c89190611e01565b60405180910390fd5b565b60007ff0c57e16840df040f15088dc2f81fe391c3923bec73e23a9662efc9c229c6a00905090565b611903611a16565b61190c81611a56565b50565b60006119196119e6565b905060008160000160009054906101000a900473ffffffffffffffffffffffffffffffffffffffff169050828260000160006101000a81548173ffffffffffffffffffffffffffffffffffffffff021916908373ffffffffffffffffffffffffffffffffffffffff1602179055508273ffffffffffffffffffffffffffffffffffffffff168173ffffffffffffffffffffffffffffffffffffffff167f8be0079c531659141344cd1fd0a4f28419497f9722a3daafe3b4186f6b6457e060405160405180910390a3505050565b60007f9016d09d72d40fdae2fd8ceac6b6234c7706214fd39c1cd1e609a0528c199300905090565b600033905090565b611a1e611adc565b611a54576040517fd7e6bcf800000000000000000000000000000000000000000000000000000000815260040160405180910390fd5b565b611a5e611a16565b600073ffffffffffffffffffffffffffffffffffffffff168173ffffffffffffffffffffffffffffffffffffffff1603611ad05760006040517f1e4fbdf7000000000000000000000000000000000000000000000000000000008152600401611ac79190611e01565b60405180910390fd5b611ad98161190f565b50565b6000611ae66118d3565b60000160089054906101000a900460ff16905090565b6000604051905090565b600080fd5b600080fd5b600073ffffffffffffffffffffffffffffffffffffffff82169050919050565b6000611b3b82611b10565b9050919050565b611b4b81611b30565b8114611b5657600080fd5b50565b600081359050611b6881611b42565b92915050565b600060208284031215611b8457611b83611b06565b5b6000611b9284828501611b59565b91505092915050565b60008115159050919050565b611bb081611b9b565b82525050565b6000602082019050611bcb6000830184611ba7565b92915050565b600080fd5b600080fd5b6000601f19601f8301169050919050565b7f4e487b7100000000000000000000000000000000000000000000000000000000600052604160045260246000fd5b611c2482611bdb565b810181811067ffffffffffffffff82111715611c4357611c42611bec565b5b80604052505050565b6000611c56611afc565b9050611c628282611c1b565b919050565b600067ffffffffffffffff821115611c8257611c81611bec565b5b611c8b82611bdb565b9050602081019050919050565b82818337600083830152505050565b6000611cba611cb584611c67565b611c4c565b905082815260208101848484011115611cd657611cd5611bd6565b5b611ce1848285611c98565b509392505050565b600082601f830112611cfe57611cfd611bd1565b5b8135611d0e848260208601611ca7565b91505092915050565b6000819050919050565b611d2a81611d17565b8114611d3557600080fd5b50565b600081359050611d4781611d21565b92915050565b60008060408385031215611d6457611d63611b06565b5b600083013567ffffffffffffffff811115611d8257611d81611b0b565b5b611d8e85828601611ce9565b9250506020611d9f85828601611d38565b9150509250929050565b600060208284031215611dbf57611dbe611b06565b5b600082013567ffffffffffffffff811115611ddd57611ddc611b0b565b5b611de984828501611ce9565b91505092915050565b611dfb81611b30565b82525050565b6000602082019050611e166000830184611df2565b92915050565b600080fd5b600080fd5b60008083601f840112611e3c57611e3b611bd1565b5b8235905067ffffffffffffffff811115611e5957611e58611e1c565b5b602083019150836020820283011115611e7557611e74611e21565b5b9250929050565b60008060208385031215611e9357611e92611b06565b5b600083013567ffffffffffffffff811115611eb157611eb0611b0b565b5b611ebd85828601611e26565b92509250509250929050565b6000611ed482611b10565b9050919050565b611ee481611ec9565b82525050565b6000602082019050611eff6000830184611edb565b92915050565b611f0e81611ec9565b8114611f1957600080fd5b50565b600081359050611f2b81611f05565b92915050565b60008060408385031215611f4857611f47611b06565b5b6000611f5685828601611f1c565b9250506020611f6785828601611b59565b9150509250929050565b600080600060608486031215611f8a57611f89611b06565b5b600084013567ffffffffffffffff811115611fa857611fa7611b0b565b5b611fb486828701611ce9565b935050602084013567ffffffffffffffff811115611fd557611fd4611b0b565b5b611fe186828701611ce9565b9250506040611ff286828701611d38565b9150509250925092565b60006020828403121561201257612011611b06565b5b600061202084828501611f1c565b91505092915050565b600081519050919050565b600081905092915050565b60005b8381101561205d578082015181840152602081019050612042565b60008484015250505050565b600061207482612029565b61207e8185612034565b935061208e81856020860161203f565b80840191505092915050565b60006120a68284612069565b915081905092915050565b600082825260208201905092915050565b7f446f6d61696e20616c7265616479206578697374730000000000000000000000600082015250565b60006120f86015836120b1565b9150612103826120c2565b602082019050919050565b60006020820190508181036000830152612127816120eb565b9050919050565b7f596f75206861766520616c7265616479206d696e746564206120646f6d61696e600082015250565b60006121646020836120b1565b915061216f8261212e565b602082019050919050565b6000602082019050818103600083015261219381612157565b9050919050565b7f596f7520617265206e6f742077686974656c697374656420666f72206469736360008201527f6f756e74206d696e740000000000000000000000000000000000000000000000602082015250565b60006121f66029836120b1565b91506122018261219a565b604082019050919050565b60006020820190508181036000830152612225816121e9565b9050919050565b7f4e487b7100000000000000000000000000000000000000000000000000000000600052601260045260246000fd5b7f4e487b7100000000000000000000000000000000000000000000000000000000600052601160045260246000fd5b600061229582611d17565b91506122a083611d17565b9250826122b0576122af61222c565b5b828204905092915050565b7f496e73756666696369656e74204554482073656e740000000000000000000000600082015250565b60006122f16015836120b1565b91506122fc826122bb565b602082019050919050565b60006020820190508181036000830152612320816122e4565b9050919050565b600061233282612029565b61233c81856120b1565b935061234c81856020860161203f565b61235581611bdb565b840191505092915050565b6000602082019050818103600083015261237a8184612327565b905092915050565b7f4e487b7100000000000000000000000000000000000000000000000000000000600052603260045260246000fd5b7f596f75206d757374206d696e74206120646f6d61696e20666972737400000000600082015250565b60006123e7601c836120b1565b91506123f2826123b1565b602082019050919050565b60006020820190508181036000830152612416816123da565b9050919050565b7f526566657272616c20636f646520616c72656164792065786973747300000000600082015250565b6000612453601c836120b1565b915061245e8261241d565b602082019050919050565b6000602082019050818103600083015261248281612446565b9050919050565b6000819050919050565b600067ffffffffffffffff82169050919050565b6000819050919050565b60006124cc6124c76124c284612489565b6124a7565b612493565b9050919050565b6124dc816124b1565b82525050565b60006020820190506124f760008301846124d3565b92915050565b7f596f7520617265206e6f742077686974656c697374656420666f72206672656560008201527f206d696e74000000000000000000000000000000000000000000000000000000602082015250565b60006125596025836120b1565b9150612564826124fd565b604082019050919050565b600060208201905081810360008301526125888161254c565b9050919050565b7f496e76616c696420726566657272616c20636f64650000000000000000000000600082015250565b60006125c56015836120b1565b91506125d08261258f565b602082019050919050565b600060208201905081810360008301526125f4816125b8565b9050919050565b600061260682611d17565b915061261183611d17565b92508282039050818111156126295761262861225b565b5b92915050565b61263881611d17565b82525050565b600060408201905081810360008301526126588185612327565b9050612667602083018461262f565b939250505056fea2646970667358221220fbba59f2ea2ad56603f39e29da29f78ae55a703068585f1f8a57c230e08d6bd464736f6c63430008180033",
  "linkReferences": {},
  "deployedLinkReferences": {}
}